:100000000C942A001895000018950000189500001F
:100010000C945404189500001895000018950000E1
:10002000189500001895000018950000189500001C
:10003000189500001895000018950000189500000C
:1000400018950000189500001895000018950000FC
:10005000189500008FE58DBFC8E3E0E24E2E84E0E6
:100060008EBFD4E0F4E05F2EA89584B7082E877F7A
:1000700084BF88E1992781BD91BDEEEFF3E0A0E652
:10008000B0E088278D933197E9F70E9449036624F1
:1000900088E082BD85E085BD79B7706479BF80E076
:1000A0008093780080E0809379007894AFE6B0E0A8
:1000B000E6E1FAE00E9435040E94E203A6E6B0E021
:1000C000E0E2FAE00E9435040E94DC038CE00E942A
:1000D00097030E943E030E943803EAE2FAE00E947E
:1000E00031030E94D303AFE6B0E00E942B030E94CD
:1000F0003C03E2E3FAE00E9431030E94D303A6E648
:10010000B0E00E942B03B898AAE7B0E09C9197FF5B
:1001100004C0B09B10C09F779C93B0990CC08EE137
:100120009F9390E00E94C4039F91B09904C090688F
:100130009C930C949F000C946B00F894FFCF80E08C
:100140008093780080E0809379000E943E03EAE388
:10015000FAE00E943103B898AAE7B0E09C9197FFBB
:1001600004C0B09B10C09F779C93B0990CC08EE1E7
:100170009F9390E00E94C4039F91B09904C090683F
:100180009C930C94DD00B998AAE7B0E09C9196FF8F
:1001900004C0B19B10C09F7B9C93B1990CC08EE1B1
:1001A0009F9390E00E94C4039F91B19904C0906412
:1001B0009C930C9415010C94AB000E943E03EAE45E
:1001C000FAE00E943103B898AAE7B0E09C9197FF4B
:1001D00004C0B09B10C09F779C93B0990CC08EE177
:1001E0009F9390E00E94C4039F91B09904C09068CF
:1001F0009C930C949B00B998AAE7B0E09C9196FF61
:1002000004C0B19B10C09F7B9C93B1990CC08EE140
:100210009F9390E00E94C4039F91B19904C09064A1
:100220009C930C949F010C94E3000E943E03A8E76A
:10023000B0E08C918F5F8C93EAE5FAE00E94310385
:10024000E2E6F0E0A8E0B4E00E94C6040E942903C0
:10025000B998AAE7B0E09C9196FF04C0B19B10C08A
:100260009F7B9C93B1990CC08EE19F9390E00E947C
:10027000C4039F91B19904C090649C930E946E0244
:10028000B898AAE7B0E09C9197FF04C0B09B10C05B
:100290009F779C93B0990CC08EE19F9390E00E9451
:1002A000C4039F91B09904C090689C930C945A0128
:1002B0000C9428010E943E03A8E7B0E08C918F5F68
:1002C0008C93E2E6FAE00E943103E1E6F0E0A8E078
:1002D000B4E00E94C6040E942903B998AAE7B0E0DE
:1002E0009C9196FF04C0B19B10C09F7B9C93B199D9
:1002F0000CC08EE19F9390E00E94C4039F91B1993E
:1003000004C090649C930E946E02B898AAE7B0E083
:100310009C9197FF04C0B09B10C09F779C93B099AD
:100320000CC08EE19F9390E00E94C4039F91B0990E
:1003300004C090689C930C94DD000C946D010E94A5
:100340003E03A9E7B0E08C918F5F8C93E8E6FAE07A
:100350000E943103E3E6F0E0A8E0B4E00E94C604A6
:100360000E942903B998AAE7B0E09C9196FF04C0C7
:10037000B19B10C09F7B9C93B1990CC08EE19F9361
:1003800090E00E94C4039F91B19904C090649C9333
:100390000E94B502B898AAE7B0E09C9197FF04C00C
:1003A000B09B10C09F779C93B0990CC08EE19F9337
:1003B00090E00E94C4039F91B09904C090689C9300
:1003C0000C94E4010C94B2010E943E03A9E7B0E052
:1003D0008C918F5F8C93EEE6FAE00E943103E4E6A5
:1003E000F0E0A8E0B4E00E94C6040E942903B99896
:1003F000AAE7B0E09C9196FF04C0B19B10C09F7B20
:100400009C93B1990CC08EE19F9390E00E94C4032D
:100410009F91B19904C090649C930E94B502B898D2
:10042000AAE7B0E09C9197FF04C0B09B10C09F77F3
:100430009C93B0990CC08EE19F9390E00E94C403FE
:100440009F91B09904C090689C930C9429020C94DD
:10045000F7010E943E03A9E7B0E08C918F5F8C9377
:10046000E6E7FAE00E943103E5E6F0E0A8E0B4E058
:100470000E94C6040E942903B998AAE7B0E09C91A3
:1004800096FF04C0B19B10C09F7B9C93B1990CC098
:100490008EE19F9390E00E94C4039F91B19904C0A4
:1004A00090649C930E94B502B898AAE7B0E09C9132
:1004B00097FF04C0B09B10C09F779C93B0990CC06D
:1004C0008EE19F9390E00E94C4039F91B09904C075
:1004D00090689C930C949B000C943C0200917800D3
:1004E000013011F00C949202A2E6B0E08C918F5F83
:1004F0008C9300916200083111F00C94820280E02C
:10050000809362000E943E03EAE5FAE00E94310314
:10051000E2E6F0E0A8E0B4E00E94C6040E942903ED
:100520000C94B40200917800023011F00C94B402E3
:10053000A1E6B0E08C918F5F8C93009161000C3349
:1005400011F00C94A60280E0809361000E943E03AB
:10055000E2E6FAE00E943103E1E6F0E0A8E0B4E070
:100560000E94C6040E942903089500917900013079
:1005700011F00C94DC02A3E6B0E08C918F5F8C93B9
:10058000009163000F3118F011F00C94C9020C9423
:10059000CC0281E0809363000E943E03E8E6FAE02B
:1005A0000E943103E3E6F0E0A8E0B4E00E94C60454
:1005B0000E9429030C94280300917900023011F065
:1005C0000C940303A4E6B0E08C918F5F8C930091B0
:1005D00064000C3018F011F00C94F0020C94F3024B
:1005E00081E0809364000E943E03EEE6FAE00E9400
:1005F0003103E4E6F0E0A8E0B4E00E94C6040E9403
:1006000029030C94280300917900033011F00C9415
:100610002803A5E6B0E08C918F5F8C930091650074
:10062000043618F011F00C9417030C941A0380E0B0
:10063000809365000E943E03E6E7FAE00E943103E2
:10064000E5E6F0E0A8E0B4E00E94C6040E942903B9
:100650000895A8E0B4E08D91882311F062D0FBCF1B
:1006600008950E943B04802D11F05BD0FACF0895CD
:1006700082E05DD00BD007C080EC59C081E057D03C
:1006800005D080E854C080E852D0089583E09927CF
:100690007BC08AEF90E00E94C403D09AD19AD29A8C
:1006A000D39AD49AD59ADD9885E090E00E94C4034D
:1006B000DC98D898D998DA9ADB9ADC9AEF93FF9372
:1006C000E4ECF0E00E94B803FF91EF91DC9859D080
:1006D000DC9AEF93FF93E4ECF0E00E94B803FF9103
:1006E000EF91DC984ED0DC9AEF93FF93E4ECF0E0CE
:1006F0000E94B803FF91EF91DC9843D0DB98DC9A1D
:10070000EF93FF93E4ECF0E00E94B803FF91EF91C8
:10071000DC9837D088E20BD08EE009D086E007D095
:100720000895DD9A829505D004D02BD00895DD98E8
:10073000F9CF859510F4DB9A01C0DB98859510F40C
:10074000DA9A01C0DA98859510F4D99A01C0D9983F
:10075000859510F4D89A01C0D898DC9AEF93FF934E
:10076000E4ECF0E00E94B803FF91EF91DC9808956B
:100770003197F1F70895689462F80895E89462F863
:10078000089581E090E000C0EF93FF93EE27E82BFF
:10079000E92B31F0E0EDF7E03197F1F70197D1F770
:1007A000FF91EF910895A6E6B0E0E3E6F0E00E9445
:1007B000200433970C94FC03E6E6F0E0A3E6B0E0F7
:1007C0000C940E04EFE6F0E0A0E6B0E00C94EA032F
:1007D000ADE0BB27868197810E944A040D938381F7
:1007E00094810E944A040D93808191810E944A0461
:1007F0000D930895EDE0FF2782810E943F048AE374
:100800008D9381810E943F048AE38D9380810E94B1
:100810003F0488278C930895ADE0BB27868197819C
:100820000E944A040D93838194810E944A040D938F
:10083000808191810E944A040D930895EDE0FF2785
:1008400082810E943F048FE28D9381810E943F0448
:100850008FE28D9380810E943F0488278D930895B5
:10086000019111912191308108950E943B040D92D4
:100870000020D9F70895C8953196002008950027E3
:100880008A3018F08A500395FBCF005D0D93805D90
:100890008D930895805390530027813018F0065FA0
:1008A0008A95FBCF090F0895AF93BF930F939F9342
:1008B0008F938FB78F93A0E6B0E08C9183958D9343
:1008C0008C3309F03DC088278E9311968C918395C7
:1008D0008D938C3309F034C088278E9311968C91B8
:1008E00083958D93883161F588278E9311968C912D
:1008F00083958D939C910EE1943089F0963079F038
:10090000993069F09B3059F00CE1923039F411962E
:100910009C911197937019F4039501C00FE1801712
:1009200078F071F081E08E9311968C9183958D9380
:100930008D3031F481E08E9311968C9183958C9358
:100940008F918FBF8F919F910F91BF91AF9118950C
:10095000000F111F221F331F089500951095209539
:1009600030950F5F1F4F2F4F3F4F0895019110811A
:100970000FC00E9430040EC00E94300410C00191CC
:10098000108117FF05C03FEF2FEF04C00081112732
:100990002227332737FF03C0E0DF8DE28D93CF920C
:1009A000DF92EF92AA24BB24CC24DD24EE2440E283
:1009B000EAE0FF2755E093E38081890F87FD9F7070
:1009C00083FD907F891B81935A95A9F7C1DFAA1CEB
:1009D000BB1CCC1CDD1CEE1C4A9551F7E894EFE0E3
:1009E000FF2782910BD0EB30E0F71EF068948A2D40
:1009F00009D04D93EF90DF90CF900895982F829576
:100A000001D0892F8F70805D26F0803309F408951E
:100A100068948D93089532333A35393A3530000071
:100A200032322F31322F3331000054696D653A2054
:100A30000000446174653A200000312D54696D65F1
:100A40002053657474696E670000322D44617465CB
:100A50002053657474696E670000486F75723A20A0
:100A600000004D696E3A20004461793A20004D6FD4
:0E0A70006E74683A2000596561723A200000E9
:00000001FF
